{
  "_format": "hh-sol-artifact-1",
  "contractName": "Marketplace",
  "sourceName": "contracts/marketplace/Marketplace.sol",
  "abi": [
    {
      "inputs": [
        {
          "internalType": "address",
          "name": "_acceptedToken",
          "type": "address"
        },
        {
          "internalType": "uint256",
          "name": "_ownerCutPerMillion",
          "type": "uint256"
        },
        {
          "internalType": "address",
          "name": "_owner",
          "type": "address"
        }
      ],
      "stateMutability": "nonpayable",
      "type": "constructor"
    },
    {
      "anonymous": false,
      "inputs": [
        {
          "indexed": false,
          "internalType": "uint256",
          "name": "ownerCutPerMillion",
          "type": "uint256"
        }
      ],
      "name": "ChangedOwnerCutPerMillion",
      "type": "event"
    },
    {
      "anonymous": false,
      "inputs": [
        {
          "indexed": false,
          "internalType": "uint256",
          "name": "publicationFee",
          "type": "uint256"
        }
      ],
      "name": "ChangedPublicationFee",
      "type": "event"
    },
    {
      "anonymous": false,
      "inputs": [
        {
          "indexed": false,
          "internalType": "address",
          "name": "userAddress",
          "type": "address"
        },
        {
          "indexed": false,
          "internalType": "address",
          "name": "relayerAddress",
          "type": "address"
        },
        {
          "indexed": false,
          "internalType": "bytes",
          "name": "functionSignature",
          "type": "bytes"
        }
      ],
      "name": "MetaTransactionExecuted",
      "type": "event"
    },
    {
      "anonymous": false,
      "inputs": [
        {
          "indexed": false,
          "internalType": "bytes32",
          "name": "id",
          "type": "bytes32"
        },
        {
          "indexed": true,
          "internalType": "uint256",
          "name": "assetId",
          "type": "uint256"
        },
        {
          "indexed": true,
          "internalType": "address",
          "name": "seller",
          "type": "address"
        },
        {
          "indexed": false,
          "internalType": "address",
          "name": "nftAddress",
          "type": "address"
        }
      ],
      "name": "OrderCancelled",
      "type": "event"
    },
    {
      "anonymous": false,
      "inputs": [
        {
          "indexed": false,
          "internalType": "bytes32",
          "name": "id",
          "type": "bytes32"
        },
        {
          "indexed": true,
          "internalType": "uint256",
          "name": "assetId",
          "type": "uint256"
        },
        {
          "indexed": true,
          "internalType": "address",
          "name": "seller",
          "type": "address"
        },
        {
          "indexed": false,
          "internalType": "address",
          "name": "nftAddress",
          "type": "address"
        },
        {
          "indexed": false,
          "internalType": "uint256",
          "name": "priceInWei",
          "type": "uint256"
        },
        {
          "indexed": false,
          "internalType": "uint256",
          "name": "expiresAt",
          "type": "uint256"
        }
      ],
      "name": "OrderCreated",
      "type": "event"
    },
    {
      "anonymous": false,
      "inputs": [
        {
          "indexed": false,
          "internalType": "bytes32",
          "name": "id",
          "type": "bytes32"
        },
        {
          "indexed": true,
          "internalType": "uint256",
          "name": "assetId",
          "type": "uint256"
        },
        {
          "indexed": true,
          "internalType": "address",
          "name": "seller",
          "type": "address"
        },
        {
          "indexed": false,
          "internalType": "address",
          "name": "nftAddress",
          "type": "address"
        },
        {
          "indexed": false,
          "internalType": "uint256",
          "name": "totalPrice",
          "type": "uint256"
        },
        {
          "indexed": true,
          "internalType": "address",
          "name": "buyer",
          "type": "address"
        }
      ],
      "name": "OrderSuccessful",
      "type": "event"
    },
    {
      "anonymous": false,
      "inputs": [
        {
          "indexed": true,
          "internalType": "address",
          "name": "previousOwner",
          "type": "address"
        },
        {
          "indexed": true,
          "internalType": "address",
          "name": "newOwner",
          "type": "address"
        }
      ],
      "name": "OwnershipTransferred",
      "type": "event"
    },
    {
      "anonymous": false,
      "inputs": [
        {
          "indexed": false,
          "internalType": "address",
          "name": "account",
          "type": "address"
        }
      ],
      "name": "Paused",
      "type": "event"
    },
    {
      "anonymous": false,
      "inputs": [
        {
          "indexed": false,
          "internalType": "address",
          "name": "account",
          "type": "address"
        }
      ],
      "name": "Unpaused",
      "type": "event"
    },
    {
      "inputs": [],
      "name": "ERC721_Interface",
      "outputs": [
        {
          "internalType": "bytes4",
          "name": "",
          "type": "bytes4"
        }
      ],
      "stateMutability": "view",
      "type": "function"
    },
    {
      "inputs": [],
      "name": "InterfaceId_ValidateFingerprint",
      "outputs": [
        {
          "internalType": "bytes4",
          "name": "",
          "type": "bytes4"
        }
      ],
      "stateMutability": "view",
      "type": "function"
    },
    {
      "inputs": [],
      "name": "acceptedToken",
      "outputs": [
        {
          "internalType": "contract ERC20Interface",
          "name": "",
          "type": "address"
        }
      ],
      "stateMutability": "view",
      "type": "function"
    },
    {
      "inputs": [
        {
          "internalType": "address",
          "name": "nftAddress",
          "type": "address"
        },
        {
          "internalType": "uint256",
          "name": "assetId",
          "type": "uint256"
        }
      ],
      "name": "cancelOrder",
      "outputs": [],
      "stateMutability": "nonpayable",
      "type": "function"
    },
    {
      "inputs": [
        {
          "internalType": "address",
          "name": "nftAddress",
          "type": "address"
        },
        {
          "internalType": "uint256",
          "name": "assetId",
          "type": "uint256"
        },
        {
          "internalType": "uint256",
          "name": "priceInWei",
          "type": "uint256"
        },
        {
          "internalType": "uint256",
          "name": "expiresAt",
          "type": "uint256"
        }
      ],
      "name": "createOrder",
      "outputs": [],
      "stateMutability": "nonpayable",
      "type": "function"
    },
    {
      "inputs": [],
      "name": "domainSeparator",
      "outputs": [
        {
          "internalType": "bytes32",
          "name": "",
          "type": "bytes32"
        }
      ],
      "stateMutability": "view",
      "type": "function"
    },
    {
      "inputs": [
        {
          "internalType": "address",
          "name": "userAddress",
          "type": "address"
        },
        {
          "internalType": "bytes",
          "name": "functionSignature",
          "type": "bytes"
        },
        {
          "internalType": "bytes32",
          "name": "sigR",
          "type": "bytes32"
        },
        {
          "internalType": "bytes32",
          "name": "sigS",
          "type": "bytes32"
        },
        {
          "internalType": "uint8",
          "name": "sigV",
          "type": "uint8"
        }
      ],
      "name": "executeMetaTransaction",
      "outputs": [
        {
          "internalType": "bytes",
          "name": "",
          "type": "bytes"
        }
      ],
      "stateMutability": "payable",
      "type": "function"
    },
    {
      "inputs": [
        {
          "internalType": "address",
          "name": "nftAddress",
          "type": "address"
        },
        {
          "internalType": "uint256",
          "name": "assetId",
          "type": "uint256"
        },
        {
          "internalType": "uint256",
          "name": "price",
          "type": "uint256"
        }
      ],
      "name": "executeOrder",
      "outputs": [],
      "stateMutability": "nonpayable",
      "type": "function"
    },
    {
      "inputs": [],
      "name": "getChainId",
      "outputs": [
        {
          "internalType": "uint256",
          "name": "",
          "type": "uint256"
        }
      ],
      "stateMutability": "view",
      "type": "function"
    },
    {
      "inputs": [
        {
          "internalType": "address",
          "name": "user",
          "type": "address"
        }
      ],
      "name": "getNonce",
      "outputs": [
        {
          "internalType": "uint256",
          "name": "nonce",
          "type": "uint256"
        }
      ],
      "stateMutability": "view",
      "type": "function"
    },
    {
      "inputs": [
        {
          "internalType": "address",
          "name": "",
          "type": "address"
        },
        {
          "internalType": "uint256",
          "name": "",
          "type": "uint256"
        }
      ],
      "name": "orderByAssetId",
      "outputs": [
        {
          "internalType": "bytes32",
          "name": "id",
          "type": "bytes32"
        },
        {
          "internalType": "address",
          "name": "seller",
          "type": "address"
        },
        {
          "internalType": "address",
          "name": "nftAddress",
          "type": "address"
        },
        {
          "internalType": "uint256",
          "name": "price",
          "type": "uint256"
        },
        {
          "internalType": "uint256",
          "name": "expiresAt",
          "type": "uint256"
        }
      ],
      "stateMutability": "view",
      "type": "function"
    },
    {
      "inputs": [],
      "name": "owner",
      "outputs": [
        {
          "internalType": "address",
          "name": "",
          "type": "address"
        }
      ],
      "stateMutability": "view",
      "type": "function"
    },
    {
      "inputs": [],
      "name": "ownerCutPerMillion",
      "outputs": [
        {
          "internalType": "uint256",
          "name": "",
          "type": "uint256"
        }
      ],
      "stateMutability": "view",
      "type": "function"
    },
    {
      "inputs": [],
      "name": "paused",
      "outputs": [
        {
          "internalType": "bool",
          "name": "",
          "type": "bool"
        }
      ],
      "stateMutability": "view",
      "type": "function"
    },
    {
      "inputs": [],
      "name": "publicationFeeInWei",
      "outputs": [
        {
          "internalType": "uint256",
          "name": "",
          "type": "uint256"
        }
      ],
      "stateMutability": "view",
      "type": "function"
    },
    {
      "inputs": [],
      "name": "renounceOwnership",
      "outputs": [],
      "stateMutability": "nonpayable",
      "type": "function"
    },
    {
      "inputs": [
        {
          "internalType": "address",
          "name": "nftAddress",
          "type": "address"
        },
        {
          "internalType": "uint256",
          "name": "assetId",
          "type": "uint256"
        },
        {
          "internalType": "uint256",
          "name": "price",
          "type": "uint256"
        },
        {
          "internalType": "bytes",
          "name": "fingerprint",
          "type": "bytes"
        }
      ],
      "name": "safeExecuteOrder",
      "outputs": [],
      "stateMutability": "nonpayable",
      "type": "function"
    },
    {
      "inputs": [
        {
          "internalType": "uint256",
          "name": "_ownerCutPerMillion",
          "type": "uint256"
        }
      ],
      "name": "setOwnerCutPerMillion",
      "outputs": [],
      "stateMutability": "nonpayable",
      "type": "function"
    },
    {
      "inputs": [
        {
          "internalType": "uint256",
          "name": "_publicationFee",
          "type": "uint256"
        }
      ],
      "name": "setPublicationFee",
      "outputs": [],
      "stateMutability": "nonpayable",
      "type": "function"
    },
    {
      "inputs": [
        {
          "internalType": "address",
          "name": "newOwner",
          "type": "address"
        }
      ],
      "name": "transferOwnership",
      "outputs": [],
      "stateMutability": "nonpayable",
      "type": "function"
    }
  ],
  "bytecode": "0x60806040523480156200001157600080fd5b5060405162002b1c38038062002b1c833981810160405260608110156200003757600080fd5b5080516020820151604090920151909190600062000054620001d7565b600080546001600160a01b0319166001600160a01b03831690811782556040519293509160008051602062002afc833981519152908290a3506000805460ff60a01b19169055604080518082018252601881527f446563656e7472616c616e64204d61726b6574706c6163650000000000000000602080830191909152825180840190935260018352603160f81b90830152620000f19162000237565b620000fc82620002d1565b6001600160a01b03811662000148576040805162461bcd60e51b815260206004820152600d60248201526c24b73b30b634b21037bbb732b960991b604482015290519081900360640190fd5b6200015381620003b7565b62000172836001600160a01b0316620004b060201b62000e2c1760201c565b620001af5760405162461bcd60e51b815260040180806020018281038252603681526020018062002a046036913960400191505060405180910390fd5b5050600180546001600160a01b0319166001600160a01b0392909216919091179055620004c9565b600033301415620002315760606000368080601f0160208091040260200160405190810160405280939291908181526020018383808284376000920191909152505050503601516001600160a01b03169150620002349050565b50335b90565b6040518060800160405280604f815260200162002a60604f913980519060200120828051906020012082805190602001203062000279620004b660201b60201c565b60001b60405160200180868152602001858152602001848152602001836001600160a01b0316815260200182815260200195505050505050604051602081830303815290604052805190602001206005819055505050565b620002db620001d7565b6001600160a01b0316620002ee620004ba565b6001600160a01b03161462000339576040805162461bcd60e51b8152602060048201819052602482015260008051602062002adc833981519152604482015290519081900360640190fd5b620f424081106200037c5760405162461bcd60e51b815260040180806020018281038252602d81526020018062002aaf602d913960400191505060405180910390fd5b60038190556040805182815290517ffa406a120a9e7f2b332bfb7a43d3bf1c3f079262202907a6b69c94b2821a02c69181900360200190a150565b620003c1620001d7565b6001600160a01b0316620003d4620004ba565b6001600160a01b0316146200041f576040805162461bcd60e51b8152602060048201819052602482015260008051602062002adc833981519152604482015290519081900360640190fd5b6001600160a01b038116620004665760405162461bcd60e51b815260040180806020018281038252602681526020018062002a3a6026913960400191505060405180910390fd5b600080546040516001600160a01b038085169392169160008051602062002afc83398151915291a3600080546001600160a01b0319166001600160a01b0392909216919091179055565b3b151590565b4690565b6000546001600160a01b031690565b61252b80620004d96000396000f3fe6080604052600436106100ef5760003560e01c80630c53c51c146100f457806319dad16d1461022b5780632b4c32be146102575780632d0335ab146102895780633408e470146102ce57806337f82f37146102e3578063451c3d80146102f85780635c975abb146103295780636a206137146103525780636f652e1a1461038b578063715018a6146103d05780638da5cb5b146103e55780639b214f77146103fa578063a01f79d4146104c7578063ae4f1198146104dc578063ae7b0333146104f1578063af8996f114610530578063e61f38511461055a578063f2fde38b146105ca578063f698da25146105fd575b600080fd5b6101b6600480360360a081101561010a57600080fd5b6001600160a01b038235169190810190604081016020820135600160201b81111561013457600080fd5b82018360208201111561014657600080fd5b803590602001918460018302840111600160201b8311171561016757600080fd5b91908080601f016020809104026020016040519081016040528093929190818152602001838380828437600092019190915250929550508235935050506020810135906040013560ff16610612565b6040805160208082528351818301528351919283929083019185019080838360005b838110156101f05781810151838201526020016101d8565b50505050905090810190601f16801561021d5780820380516001836020036101000a031916815260200191505b509250505060405180910390f35b34801561023757600080fd5b506102556004803603602081101561024e57600080fd5b50356108d2565b005b34801561026357600080fd5b5061026c6109b0565b604080516001600160e01b03199092168252519081900360200190f35b34801561029557600080fd5b506102bc600480360360208110156102ac57600080fd5b50356001600160a01b03166109bb565b60408051918252519081900360200190f35b3480156102da57600080fd5b506102bc6109d6565b3480156102ef57600080fd5b5061026c6109db565b34801561030457600080fd5b5061030d6109ff565b604080516001600160a01b039092168252519081900360200190f35b34801561033557600080fd5b5061033e610a0e565b604080519115158252519081900360200190f35b34801561035e57600080fd5b506102556004803603604081101561037557600080fd5b506001600160a01b038135169060200135610a1e565b34801561039757600080fd5b50610255600480360360808110156103ae57600080fd5b506001600160a01b038135169060208101359060408101359060600135610a7a565b3480156103dc57600080fd5b50610255610ad9565b3480156103f157600080fd5b5061030d610b73565b34801561040657600080fd5b506102556004803603608081101561041d57600080fd5b6001600160a01b038235169160208101359160408201359190810190608081016060820135600160201b81111561045357600080fd5b82018360208201111561046557600080fd5b803590602001918460018302840111600160201b8311171561048657600080fd5b91908080601f016020809104026020016040519081016040528093929190818152602001838380828437600092019190915250929550610b82945050505050565b3480156104d357600080fd5b506102bc610be2565b3480156104e857600080fd5b506102bc610be8565b3480156104fd57600080fd5b506102556004803603606081101561051457600080fd5b506001600160a01b038135169060208101359060400135610bee565b34801561053c57600080fd5b506102556004803603602081101561055357600080fd5b5035610c56565b34801561056657600080fd5b506105936004803603604081101561057d57600080fd5b506001600160a01b038135169060200135610cf3565b604080519586526001600160a01b039485166020870152929093168483015260608401526080830191909152519081900360a00190f35b3480156105d657600080fd5b50610255600480360360208110156105ed57600080fd5b50356001600160a01b0316610d36565b34801561060957600080fd5b506102bc610e26565b606061061c61219c565b50604080516060810182526001600160a01b0388166000818152600660209081529084902054835282015290810186905261065a8782878787610e32565b6106955760405162461bcd60e51b815260040180806020018281038252603d81526020018061233b603d913960400191505060405180910390fd5b6001600160a01b03871660008181526006602090815260408083208054600101905580519384523384830181905260609185018281528b51928601929092528a517f5845892132946850460bff5a0083f71031bc5bf9aadcd40f1de79423eac9b10b958d9592948d94919391926080850192918601918190849084905b8381101561072a578181015183820152602001610712565b50505050905090810190601f1680156107575780820380516001836020036101000a031916815260200191505b5094505050505060405180910390a160006060306001600160a01b0316888a6040516020018083805190602001908083835b602083106107a85780518252601f199092019160209182019101610789565b6001836020036101000a038019825116818451168082178552505050505050905001826001600160a01b031660601b8152601401925050506040516020818303038152906040526040518082805190602001908083835b6020831061081e5780518252601f1990920191602091820191016107ff565b6001836020036101000a0380198251168184511680821785525050505050509050019150506000604051808303816000865af19150503d8060008114610880576040519150601f19603f3d011682016040523d82523d6000602084013e610885565b606091505b5091509150816108c65760405162461bcd60e51b815260040180806020018281038252602781526020018061241a6027913960400191505060405180910390fd5b98975050505050505050565b6108da610f1f565b6001600160a01b03166108eb610b73565b6001600160a01b031614610934576040805162461bcd60e51b81526020600482018190526024820152600080516020612441833981519152604482015290519081900360640190fd5b620f424081106109755760405162461bcd60e51b815260040180806020018281038252602d8152602001806123cc602d913960400191505060405180910390fd5b60038190556040805182815290517ffa406a120a9e7f2b332bfb7a43d3bf1c3f079262202907a6b69c94b2821a02c69181900360200190a150565b6380ac58cd60e01b81565b6001600160a01b031660009081526006602052604090205490565b465b90565b7f8f9f4b63fb27ea36c52c6e650320201c8f2c6d7c1dfa95f40f5d5da52392016881565b6001546001600160a01b031681565b600054600160a01b900460ff1690565b610a26610a0e565b15610a6b576040805162461bcd60e51b815260206004820152601060248201526f14185d5cd8589b194e881c185d5cd95960821b604482015290519081900360640190fd5b610a758282610f7c565b505050565b610a82610a0e565b15610ac7576040805162461bcd60e51b815260206004820152601060248201526f14185d5cd8589b194e881c185d5cd95960821b604482015290519081900360640190fd5b610ad384848484611174565b50505050565b610ae1610f1f565b6001600160a01b0316610af2610b73565b6001600160a01b031614610b3b576040805162461bcd60e51b81526020600482018190526024820152600080516020612441833981519152604482015290519081900360640190fd5b600080546040516001600160a01b0390911690600080516020612461833981519152908390a3600080546001600160a01b0319169055565b6000546001600160a01b031690565b610b8a610a0e565b15610bcf576040805162461bcd60e51b815260206004820152601060248201526f14185d5cd8589b194e881c185d5cd95960821b604482015290519081900360640190fd5b610bdb848484846116d4565b5050505050565b60035481565b60045481565b610bf6610a0e565b15610c3b576040805162461bcd60e51b815260206004820152601060248201526f14185d5cd8589b194e881c185d5cd95960821b604482015290519081900360640190fd5b610ad3838383604051806020016040528060008152506116d4565b610c5e610f1f565b6001600160a01b0316610c6f610b73565b6001600160a01b031614610cb8576040805162461bcd60e51b81526020600482018190526024820152600080516020612441833981519152604482015290519081900360640190fd5b60048190556040805182815290517fe7fa8737293f41b5dfa0d5c3e552860a06275bed7015581b083c7be7003308ba9181900360200190a150565b600260208181526000938452604080852090915291835291208054600182015492820154600383015460049093015491936001600160a01b039081169391169185565b610d3e610f1f565b6001600160a01b0316610d4f610b73565b6001600160a01b031614610d98576040805162461bcd60e51b81526020600482018190526024820152600080516020612441833981519152604482015290519081900360640190fd5b6001600160a01b038116610ddd5760405162461bcd60e51b815260040180806020018281038252602681526020018061226b6026913960400191505060405180910390fd5b600080546040516001600160a01b038085169392169160008051602061246183398151915291a3600080546001600160a01b0319166001600160a01b0392909216919091179055565b60055481565b3b151590565b60006001600160a01b038616610e8c576040805162461bcd60e51b815260206004820152601a6024820152792726aa11bb32b934b33c9d1024a72b20a624a22fa9a4a3a722a960311b604482015290519081900360640190fd5b6001610e9f610e9a87611e5a565b611edd565b83868660405160008152602001604052604051808581526020018460ff1681526020018381526020018281526020019450505050506020604051602081039080840390855afa158015610ef6573d6000803e3d6000fd5b505050602060405103516001600160a01b0316866001600160a01b031614905095945050505050565b600033301415610f775760606000368080601f0160208091040260200160405190810160405280939291908181526020018383808284376000920191909152505050503601516001600160a01b031691506109d89050565b503390565b610f846121c6565b6000610f8e610f1f565b9050610f986121c6565b506001600160a01b038085166000908152600260208181526040808420888552825292839020835160a081018552815480825260018301548716938201939093529281015490941692820192909252600383015460608201526004909201546080830152611043576040805162461bcd60e51b8152602060048201526013602482015272105cdcd95d081b9bdd081c1d589b1a5cda1959606a1b604482015290519081900360640190fd5b816001600160a01b031681602001516001600160a01b0316148061107f575061106a610b73565b6001600160a01b0316826001600160a01b0316145b6110c4576040805162461bcd60e51b81526020600482015260116024820152702ab730baba3437b934bd32b2103ab9b2b960791b604482015290519081900360640190fd5b80516020808301516040808501516001600160a01b03808b16600090815260028087528482208c835287528482208281556001810180546001600160a01b031990811690915591810180549092169091556003810182905560040155825186815281831695810195909552825193949193908516928a927f0325426328de5b91ae4ad8462ad4076de4bcaf4551e81556185cacde5a425c6b929081900390910190a3509193505050505b92915050565b61117d84611f1b565b6000611187610f1f565b905060008590506000816001600160a01b0316636352211e876040518263ffffffff1660e01b81526004018082815260200191505060206040518083038186803b1580156111d457600080fd5b505afa1580156111e8573d6000803e3d6000fd5b505050506040513d60208110156111fe57600080fd5b505190506001600160a01b0383811690821614611262576040805162461bcd60e51b815260206004820181905260248201527f4f6e6c7920746865206f776e65722063616e20637265617465206f7264657273604482015290519081900360640190fd5b306001600160a01b0316826001600160a01b031663081812fc886040518263ffffffff1660e01b81526004018082815260200191505060206040518083038186803b1580156112b057600080fd5b505afa1580156112c4573d6000803e3d6000fd5b505050506040513d60208110156112da57600080fd5b50516001600160a01b0316148061136957506040805163e985e9c560e01b81526001600160a01b03838116600483015230602483015291519184169163e985e9c591604480820192602092909190829003018186803b15801561133c57600080fd5b505afa158015611350573d6000803e3d6000fd5b505050506040513d602081101561136657600080fd5b50515b6113a45760405162461bcd60e51b81526004018080602001828103825260328152602001806123786032913960400191505060405180910390fd5b600085116113f9576040805162461bcd60e51b815260206004820152601d60248201527f50726963652073686f756c6420626520626967676572207468616e2030000000604482015290519081900360640190fd5b61140442603c612023565b84116114415760405162461bcd60e51b81526004018080602001828103825260368152602001806122916036913960400191505060405180910390fd5b60004282888a8960405160200180868152602001856001600160a01b031660601b8152601401848152602001836001600160a01b031660601b8152601401828152602001955050505050506040516020818303038152906040528051906020012090506040518060a00160405280828152602001836001600160a01b03168152602001896001600160a01b0316815260200187815260200186815250600260008a6001600160a01b03166001600160a01b0316815260200190815260200160002060008981526020019081526020016000206000820151816000015560208201518160010160006101000a8154816001600160a01b0302191690836001600160a01b0316021790555060408201518160020160006101000a8154816001600160a01b0302191690836001600160a01b03160217905550606082015181600301556080820151816004015590505060006004541115611673576001546001600160a01b03166323b872dd856115b3610b73565b6004546040518463ffffffff1660e01b815260040180846001600160a01b03168152602001836001600160a01b031681526020018281526020019350505050602060405180830381600087803b15801561160c57600080fd5b505af1158015611620573d6000803e3d6000fd5b505050506040513d602081101561163657600080fd5b50516116735760405162461bcd60e51b815260040180806020018281038252603f8152602001806122c7603f913960400191505060405180910390fd5b604080518281526001600160a01b038a811660208301528183018990526060820188905291519184169189917f84c66c3f7ba4b390e20e8e8233e2a516f3ce34a72749e4f12bd010dfba238039919081900360800190a35050505050505050565b6116dc6121c6565b6116e585611f1b565b60006116ef610f1f565b604080516301ffc9a760e01b8152638f9f4b6360e01b6004820152905191925087916001600160a01b038316916301ffc9a7916024808301926020929190829003018186803b15801561174157600080fd5b505afa158015611755573d6000803e3d6000fd5b505050506040513d602081101561176b57600080fd5b5051156118885760408051638f9f4b6360e01b815260048101888152602482019283528651604483015286516001600160a01b03851693638f9f4b63938b938a9390929160640190602085019080838360005b838110156117d65781810151838201526020016117be565b50505050905090810190601f1680156118035780820380516001836020036101000a031916815260200191505b50935050505060206040518083038186803b15801561182157600080fd5b505afa158015611835573d6000803e3d6000fd5b505050506040513d602081101561184b57600080fd5b50516118885760405162461bcd60e51b81526004018080602001828103825260228152602001806123aa6022913960400191505060405180910390fd5b6118906121c6565b506001600160a01b0380881660009081526002602081815260408084208b8552825292839020835160a08101855281548082526001830154871693820193909352928101549094169282019290925260038301546060820152600490920154608083015261193b576040805162461bcd60e51b8152602060048201526013602482015272105cdcd95d081b9bdd081c1d589b1a5cda1959606a1b604482015290519081900360640190fd5b60208101516001600160a01b03811661198d576040805162461bcd60e51b815260206004820152600f60248201526e496e76616c6964206164647265737360881b604482015290519081900360640190fd5b836001600160a01b0316816001600160a01b031614156119e8576040805162461bcd60e51b81526020600482015260116024820152702ab730baba3437b934bd32b2103ab9b2b960791b604482015290519081900360640190fd5b86826060015114611a3b576040805162461bcd60e51b8152602060048201526018602482015277151a19481c1c9a58d9481a5cc81b9bdd0818dbdc9c9958dd60421b604482015290519081900360640190fd5b81608001514210611a87576040805162461bcd60e51b8152602060048201526011602482015270151a19481bdc99195c88195e1c1a5c9959607a1b604482015290519081900360640190fd5b826001600160a01b0316636352211e896040518263ffffffff1660e01b81526004018082815260200191505060206040518083038186803b158015611acb57600080fd5b505afa158015611adf573d6000803e3d6000fd5b505050506040513d6020811015611af557600080fd5b50516001600160a01b03828116911614611b405760405162461bcd60e51b81526004018080602001828103825260218152602001806124d56021913960400191505060405180910390fd5b81516001600160a01b038a1660009081526002602081815260408084208d855290915282208281556001810180546001600160a01b03199081169091559181018054909216909155600380820183905560049091018290555490919015611c9e57611bc3620f4240611bbd6003548c61208290919063ffffffff16565b906120db565b6001549092506001600160a01b03166323b872dd87611be0610b73565b856040518463ffffffff1660e01b815260040180846001600160a01b03168152602001836001600160a01b031681526020018281526020019350505050602060405180830381600087803b158015611c3757600080fd5b505af1158015611c4b573d6000803e3d6000fd5b505050506040513d6020811015611c6157600080fd5b5051611c9e5760405162461bcd60e51b81526004018080602001828103825260338152602001806121f56033913960400191505060405180910390fd5b6001546001600160a01b03166323b872dd8785611cbb8d8761213f565b6040518463ffffffff1660e01b815260040180846001600160a01b03168152602001836001600160a01b031681526020018281526020019350505050602060405180830381600087803b158015611d1157600080fd5b505af1158015611d25573d6000803e3d6000fd5b505050506040513d6020811015611d3b57600080fd5b5051611d785760405162461bcd60e51b81526004018080602001828103825260308152602001806124a56030913960400191505060405180910390fd5b846001600160a01b03166342842e0e84888d6040518463ffffffff1660e01b815260040180846001600160a01b03168152602001836001600160a01b031681526020018281526020019350505050600060405180830381600087803b158015611de057600080fd5b505af1158015611df4573d6000803e3d6000fd5b5050604080518481526001600160a01b038f811660208301528183018e90529151828b16945091871692508d917f695ec315e8a642a74d450a4505eeea53df699b47a7378c7d752e97d5b16eb9bb9181900360600190a450919998505050505050505050565b600060405180608001604052806043815260200161222860439139805190602001208260000151836020015184604001518051906020012060405160200180858152602001848152602001836001600160a01b03168152602001828152602001945050505050604051602081830303815290604052805190602001209050919050565b6005546040805161190160f01b6020808301919091526022820193909352604280820194909452815180820390940184526062019052815191012090565b611f2d816001600160a01b0316610e2c565b611f685760405162461bcd60e51b81526004018080602001828103825260248152602001806124816024913960400191505060405180910390fd5b604080516301ffc9a760e01b81526380ac58cd60e01b6004820152905182916001600160a01b038316916301ffc9a791602480820192602092909190829003018186803b158015611fb857600080fd5b505afa158015611fcc573d6000803e3d6000fd5b505050506040513d6020811015611fe257600080fd5b505161201f5760405162461bcd60e51b81526004018080602001828103825260358152602001806123066035913960400191505060405180910390fd5b5050565b60008282018381101561207b576040805162461bcd60e51b815260206004820152601b60248201527a536166654d6174683a206164646974696f6e206f766572666c6f7760281b604482015290519081900360640190fd5b9392505050565b6000826120915750600061116e565b8282028284828161209e57fe5b041461207b5760405162461bcd60e51b81526004018080602001828103825260218152602001806123f96021913960400191505060405180910390fd5b600080821161212e576040805162461bcd60e51b815260206004820152601a602482015279536166654d6174683a206469766973696f6e206279207a65726f60301b604482015290519081900360640190fd5b81838161213757fe5b049392505050565b600082821115612196576040805162461bcd60e51b815260206004820152601e60248201527f536166654d6174683a207375627472616374696f6e206f766572666c6f770000604482015290519081900360640190fd5b50900390565b60405180606001604052806000815260200160006001600160a01b03168152602001606081525090565b6040805160a0810182526000808252602082018190529181018290526060810182905260808101919091529056fe5472616e73666572696e67207468652063757420746f20746865204d61726b6574706c616365206f776e6572206661696c65644d6574615472616e73616374696f6e2875696e74323536206e6f6e63652c616464726573732066726f6d2c62797465732066756e6374696f6e5369676e6174757265294f776e61626c653a206e6577206f776e657220697320746865207a65726f20616464726573735075626c69636174696f6e2073686f756c64206265206d6f7265207468616e2031206d696e75746520696e20746865206675747572655472616e73666572696e6720746865207075626c69636174696f6e2066656520746f20746865204d61726b6574706c616365206f776e6572206661696c6564546865204e465420636f6e74726163742068617320616e20696e76616c69642045524337323120696d706c656d656e746174696f6e4e4d5423657865637574654d6574615472616e73616374696f6e3a205349474e45525f414e445f5349474e41545552455f444f5f4e4f545f4d4154434854686520636f6e7472616374206973206e6f7420617574686f72697a656420746f206d616e616765207468652061737365745468652061737365742066696e6765727072696e74206973206e6f742076616c6964546865206f776e6572206375742073686f756c64206265206265747765656e203020616e64203939392c393939536166654d6174683a206d756c7469706c69636174696f6e206f766572666c6f774e4d5423657865637574654d6574615472616e73616374696f6e3a2043414c4c5f4641494c45444f776e61626c653a2063616c6c6572206973206e6f7420746865206f776e65728be0079c531659141344cd1fd0a4f28419497f9722a3daafe3b4186f6b6457e0546865204e465420416464726573732073686f756c64206265206120636f6e74726163745472616e73666572696e67207468652073616c6520616d6f756e7420746f207468652073656c6c6572206661696c65645468652073656c6c6572206973206e6f206c6f6e67657220746865206f776e6572a2646970667358221220dde1ec757d7b076b55d7198b29d1c986396dc073eede9baf3eaf65f34872af9a64736f6c6343000704003354686520616363657074656420746f6b656e2061646472657373206d7573742062652061206465706c6f79656420636f6e74726163744f776e61626c653a206e6577206f776e657220697320746865207a65726f2061646472657373454950373132446f6d61696e28737472696e67206e616d652c737472696e672076657273696f6e2c6164647265737320766572696679696e67436f6e74726163742c627974657333322073616c7429546865206f776e6572206375742073686f756c64206265206265747765656e203020616e64203939392c3939394f776e61626c653a2063616c6c6572206973206e6f7420746865206f776e65728be0079c531659141344cd1fd0a4f28419497f9722a3daafe3b4186f6b6457e0",
  "linkReferences": {},
  "deployedLinkReferences": {}
}