{
  "contracts/commons/EIP712Base.sol": {
    "EIP712Base": {
      "abi": [
        {
          "inputs": [],
          "name": "domainSeparator",
          "outputs": [
            {
              "internalType": "bytes32",
              "name": "",
              "type": "bytes32"
            }
          ],
          "stateMutability": "view",
          "type": "function"
        },
        {
          "inputs": [],
          "name": "getChainId",
          "outputs": [
            {
              "internalType": "uint256",
              "name": "",
              "type": "uint256"
            }
          ],
          "stateMutability": "view",
          "type": "function"
        }
      ],
      "evm": {
        "bytecode": {
          "linkReferences": {},
          "object": "6080604052348015600f57600080fd5b5060958061001e6000396000f3fe6080604052348015600f57600080fd5b506004361060325760003560e01c80633408e470146037578063f698da2514604f575b600080fd5b603d6055565b60408051918252519081900360200190f35b603d6059565b4690565b6000548156fea26469706673582212202728c70968b1c66e8fbc4a2ed38f4b79f07bceefbb03d8b6b20f5597624c9d9364736f6c63430007040033",
          "opcodes": "PUSH1 0x80 PUSH1 0x40 MSTORE CALLVALUE DUP1 ISZERO PUSH1 0xF JUMPI PUSH1 0x0 DUP1 REVERT JUMPDEST POP PUSH1 0x95 DUP1 PUSH2 0x1E PUSH1 0x0 CODECOPY PUSH1 0x0 RETURN INVALID PUSH1 0x80 PUSH1 0x40 MSTORE CALLVALUE DUP1 ISZERO PUSH1 0xF JUMPI PUSH1 0x0 DUP1 REVERT JUMPDEST POP PUSH1 0x4 CALLDATASIZE LT PUSH1 0x32 JUMPI PUSH1 0x0 CALLDATALOAD PUSH1 0xE0 SHR DUP1 PUSH4 0x3408E470 EQ PUSH1 0x37 JUMPI DUP1 PUSH4 0xF698DA25 EQ PUSH1 0x4F JUMPI JUMPDEST PUSH1 0x0 DUP1 REVERT JUMPDEST PUSH1 0x3D PUSH1 0x55 JUMP JUMPDEST PUSH1 0x40 DUP1 MLOAD SWAP2 DUP3 MSTORE MLOAD SWAP1 DUP2 SWAP1 SUB PUSH1 0x20 ADD SWAP1 RETURN JUMPDEST PUSH1 0x3D PUSH1 0x59 JUMP JUMPDEST CHAINID SWAP1 JUMP JUMPDEST PUSH1 0x0 SLOAD DUP2 JUMP INVALID LOG2 PUSH5 0x6970667358 0x22 SLT KECCAK256 0x27 0x28 0xC7 MULMOD PUSH9 0xB1C66E8FBC4A2ED38F 0x4B PUSH26 0xF07BCEEFBB03D8B6B20F5597624C9D9364736F6C634300070400 CALLER "
        },
        "methodIdentifiers": {
          "domainSeparator()": "f698da25",
          "getChainId()": "3408e470"
        }
      }
    }
  }
}