{
  "_format": "hh-sol-artifact-1",
  "contractName": "ERC721Test",
  "sourceName": "contracts/mock/ERC721Test.sol",
  "abi": [
    {
      "inputs": [
        {
          "internalType": "string",
          "name": "_name",
          "type": "string"
        },
        {
          "internalType": "string",
          "name": "_symbol",
          "type": "string"
        }
      ],
      "stateMutability": "nonpayable",
      "type": "constructor"
    },
    {
      "anonymous": false,
      "inputs": [
        {
          "indexed": true,
          "internalType": "address",
          "name": "owner",
          "type": "address"
        },
        {
          "indexed": true,
          "internalType": "address",
          "name": "approved",
          "type": "address"
        },
        {
          "indexed": true,
          "internalType": "uint256",
          "name": "tokenId",
          "type": "uint256"
        }
      ],
      "name": "Approval",
      "type": "event"
    },
    {
      "anonymous": false,
      "inputs": [
        {
          "indexed": true,
          "internalType": "address",
          "name": "owner",
          "type": "address"
        },
        {
          "indexed": true,
          "internalType": "address",
          "name": "operator",
          "type": "address"
        },
        {
          "indexed": false,
          "internalType": "bool",
          "name": "approved",
          "type": "bool"
        }
      ],
      "name": "ApprovalForAll",
      "type": "event"
    },
    {
      "anonymous": false,
      "inputs": [
        {
          "indexed": true,
          "internalType": "address",
          "name": "from",
          "type": "address"
        },
        {
          "indexed": true,
          "internalType": "address",
          "name": "to",
          "type": "address"
        },
        {
          "indexed": true,
          "internalType": "uint256",
          "name": "tokenId",
          "type": "uint256"
        }
      ],
      "name": "Transfer",
      "type": "event"
    },
    {
      "inputs": [
        {
          "internalType": "address",
          "name": "to",
          "type": "address"
        },
        {
          "internalType": "uint256",
          "name": "tokenId",
          "type": "uint256"
        }
      ],
      "name": "approve",
      "outputs": [],
      "stateMutability": "nonpayable",
      "type": "function"
    },
    {
      "inputs": [
        {
          "internalType": "address",
          "name": "owner",
          "type": "address"
        }
      ],
      "name": "balanceOf",
      "outputs": [
        {
          "internalType": "uint256",
          "name": "",
          "type": "uint256"
        }
      ],
      "stateMutability": "view",
      "type": "function"
    },
    {
      "inputs": [],
      "name": "baseURI",
      "outputs": [
        {
          "internalType": "string",
          "name": "",
          "type": "string"
        }
      ],
      "stateMutability": "view",
      "type": "function"
    },
    {
      "inputs": [
        {
          "internalType": "uint256",
          "name": "_tokenId",
          "type": "uint256"
        }
      ],
      "name": "burn",
      "outputs": [],
      "stateMutability": "nonpayable",
      "type": "function"
    },
    {
      "inputs": [
        {
          "internalType": "uint256",
          "name": "tokenId",
          "type": "uint256"
        }
      ],
      "name": "getApproved",
      "outputs": [
        {
          "internalType": "address",
          "name": "",
          "type": "address"
        }
      ],
      "stateMutability": "view",
      "type": "function"
    },
    {
      "inputs": [
        {
          "internalType": "address",
          "name": "owner",
          "type": "address"
        },
        {
          "internalType": "address",
          "name": "operator",
          "type": "address"
        }
      ],
      "name": "isApprovedForAll",
      "outputs": [
        {
          "internalType": "bool",
          "name": "",
          "type": "bool"
        }
      ],
      "stateMutability": "view",
      "type": "function"
    },
    {
      "inputs": [
        {
          "internalType": "address",
          "name": "_to",
          "type": "address"
        },
        {
          "internalType": "uint256",
          "name": "_tokenId",
          "type": "uint256"
        }
      ],
      "name": "mint",
      "outputs": [],
      "stateMutability": "nonpayable",
      "type": "function"
    },
    {
      "inputs": [],
      "name": "name",
      "outputs": [
        {
          "internalType": "string",
          "name": "",
          "type": "string"
        }
      ],
      "stateMutability": "view",
      "type": "function"
    },
    {
      "inputs": [
        {
          "internalType": "uint256",
          "name": "tokenId",
          "type": "uint256"
        }
      ],
      "name": "ownerOf",
      "outputs": [
        {
          "internalType": "address",
          "name": "",
          "type": "address"
        }
      ],
      "stateMutability": "view",
      "type": "function"
    },
    {
      "inputs": [
        {
          "internalType": "address",
          "name": "from",
          "type": "address"
        },
        {
          "internalType": "address",
          "name": "to",
          "type": "address"
        },
        {
          "internalType": "uint256",
          "name": "tokenId",
          "type": "uint256"
        }
      ],
      "name": "safeTransferFrom",
      "outputs": [],
      "stateMutability": "nonpayable",
      "type": "function"
    },
    {
      "inputs": [
        {
          "internalType": "address",
          "name": "from",
          "type": "address"
        },
        {
          "internalType": "address",
          "name": "to",
          "type": "address"
        },
        {
          "internalType": "uint256",
          "name": "tokenId",
          "type": "uint256"
        },
        {
          "internalType": "bytes",
          "name": "_data",
          "type": "bytes"
        }
      ],
      "name": "safeTransferFrom",
      "outputs": [],
      "stateMutability": "nonpayable",
      "type": "function"
    },
    {
      "inputs": [
        {
          "internalType": "address",
          "name": "operator",
          "type": "address"
        },
        {
          "internalType": "bool",
          "name": "approved",
          "type": "bool"
        }
      ],
      "name": "setApprovalForAll",
      "outputs": [],
      "stateMutability": "nonpayable",
      "type": "function"
    },
    {
      "inputs": [
        {
          "internalType": "uint256",
          "name": "_tokenId",
          "type": "uint256"
        },
        {
          "internalType": "string",
          "name": "_uri",
          "type": "string"
        }
      ],
      "name": "setTokenURI",
      "outputs": [],
      "stateMutability": "nonpayable",
      "type": "function"
    },
    {
      "inputs": [
        {
          "internalType": "bytes4",
          "name": "interfaceId",
          "type": "bytes4"
        }
      ],
      "name": "supportsInterface",
      "outputs": [
        {
          "internalType": "bool",
          "name": "",
          "type": "bool"
        }
      ],
      "stateMutability": "view",
      "type": "function"
    },
    {
      "inputs": [],
      "name": "symbol",
      "outputs": [
        {
          "internalType": "string",
          "name": "",
          "type": "string"
        }
      ],
      "stateMutability": "view",
      "type": "function"
    },
    {
      "inputs": [
        {
          "internalType": "uint256",
          "name": "index",
          "type": "uint256"
        }
      ],
      "name": "tokenByIndex",
      "outputs": [
        {
          "internalType": "uint256",
          "name": "",
          "type": "uint256"
        }
      ],
      "stateMutability": "view",
      "type": "function"
    },
    {
      "inputs": [
        {
          "internalType": "address",
          "name": "owner",
          "type": "address"
        },
        {
          "internalType": "uint256",
          "name": "index",
          "type": "uint256"
        }
      ],
      "name": "tokenOfOwnerByIndex",
      "outputs": [
        {
          "internalType": "uint256",
          "name": "",
          "type": "uint256"
        }
      ],
      "stateMutability": "view",
      "type": "function"
    },
    {
      "inputs": [
        {
          "internalType": "uint256",
          "name": "tokenId",
          "type": "uint256"
        }
      ],
      "name": "tokenURI",
      "outputs": [
        {
          "internalType": "string",
          "name": "",
          "type": "string"
        }
      ],
      "stateMutability": "view",
      "type": "function"
    },
    {
      "inputs": [],
      "name": "totalSupply",
      "outputs": [
        {
          "internalType": "uint256",
          "name": "",
          "type": "uint256"
        }
      ],
      "stateMutability": "view",
      "type": "function"
    },
    {
      "inputs": [
        {
          "internalType": "address",
          "name": "from",
          "type": "address"
        },
        {
          "internalType": "address",
          "name": "to",
          "type": "address"
        },
        {
          "internalType": "uint256",
          "name": "tokenId",
          "type": "uint256"
        }
      ],
      "name": "transferFrom",
      "outputs": [],
      "stateMutability": "nonpayable",
      "type": "function"
    }
  ],
  "bytecode": "0x60806040523480156200001157600080fd5b506040516200222b3803806200222b833981810160405260408110156200003757600080fd5b81019080805160405193929190846401000000008211156200005857600080fd5b9083019060208201858111156200006e57600080fd5b82516401000000008111828201881017156200008957600080fd5b82525081516020918201929091019080838360005b83811015620000b85781810151838201526020016200009e565b50505050905090810190601f168015620000e65780820380516001836020036101000a031916815260200191505b50604052602001805160405193929190846401000000008211156200010a57600080fd5b9083019060208201858111156200012057600080fd5b82516401000000008111828201881017156200013b57600080fd5b82525081516020918201929091019080838360005b838110156200016a57818101518382015260200162000150565b50505050905090810190601f168015620001985780820380516001836020036101000a031916815260200191505b5060405250839150829050620001b56301ffc9a760e01b62000221565b8151620001ca906006906020850190620002a6565b508051620001e0906007906020840190620002a6565b50620001f36380ac58cd60e01b62000221565b62000205635b5e139f60e01b62000221565b6200021763780e9d6360e01b62000221565b5050505062000352565b6001600160e01b0319808216141562000281576040805162461bcd60e51b815260206004820152601c60248201527f4552433136353a20696e76616c696420696e7465726661636520696400000000604482015290519081900360640190fd5b6001600160e01b0319166000908152602081905260409020805460ff19166001179055565b828054600181600116156101000203166002900490600052602060002090601f016020900481019282620002de576000855562000329565b82601f10620002f957805160ff191683800117855562000329565b8280016001018555821562000329579182015b82811115620003295782518255916020019190600101906200030c565b50620003379291506200033b565b5090565b5b808211156200033757600081556001016200033c565b611ec980620003626000396000f3fe608060405234801561001057600080fd5b50600436106100fc5760003560e01c806301ffc9a71461010157806306fdde031461013c578063081812fc146101b9578063095ea7b3146101f2578063162094c41461022057806318160ddd146102cb57806323b872dd146102e55780632f745c591461031b57806340c10f191461034757806342842e0e1461037357806342966c68146103a95780634f6ccce7146103c65780636352211e146103e35780636c0360eb1461040057806370a082311461040857806395d89b411461042e578063a22cb46514610436578063b88d4fde14610464578063c87b56dd14610528578063e985e9c514610545575b600080fd5b6101286004803603602081101561011757600080fd5b50356001600160e01b031916610573565b604080519115158252519081900360200190f35b610144610596565b6040805160208082528351818301528351919283929083019185019080838360005b8381101561017e578181015183820152602001610166565b50505050905090810190601f1680156101ab5780820380516001836020036101000a031916815260200191505b509250505060405180910390f35b6101d6600480360360208110156101cf57600080fd5b503561062c565b604080516001600160a01b039092168252519081900360200190f35b61021e6004803603604081101561020857600080fd5b506001600160a01b03813516906020013561068e565b005b61021e6004803603604081101561023657600080fd5b81359190810190604081016020820135600160201b81111561025757600080fd5b82018360208201111561026957600080fd5b803590602001918460018302840111600160201b8311171561028a57600080fd5b91908080601f016020809104026020016040519081016040528093929190818152602001838380828437600092019190915250929550610769945050505050565b6102d3610777565b60408051918252519081900360200190f35b61021e600480360360608110156102fb57600080fd5b506001600160a01b03813581169160208101359091169060400135610788565b6102d36004803603604081101561033157600080fd5b506001600160a01b0381351690602001356107df565b61021e6004803603604081101561035d57600080fd5b506001600160a01b03813516906020013561080a565b61021e6004803603606081101561038957600080fd5b506001600160a01b03813581169160208101359091169060400135610814565b61021e600480360360208110156103bf57600080fd5b503561082f565b6102d3600480360360208110156103dc57600080fd5b503561083b565b6101d6600480360360208110156103f957600080fd5b5035610851565b610144610879565b6102d36004803603602081101561041e57600080fd5b50356001600160a01b03166108da565b610144610942565b61021e6004803603604081101561044c57600080fd5b506001600160a01b03813516906020013515156109a3565b61021e6004803603608081101561047a57600080fd5b6001600160a01b03823581169260208101359091169160408201359190810190608081016060820135600160201b8111156104b457600080fd5b8201836020820111156104c657600080fd5b803590602001918460018302840111600160201b831117156104e757600080fd5b91908080601f016020809104026020016040519081016040528093929190818152602001838380828437600092019190915250929550610aa4945050505050565b6101446004803603602081101561053e57600080fd5b5035610b02565b6101286004803603604081101561055b57600080fd5b506001600160a01b0381358116916020013516610d85565b6001600160e01b0319811660009081526020819052604090205460ff165b919050565b60068054604080516020601f60026000196101006001881615020190951694909404938401819004810282018101909252828152606093909290918301828280156106225780601f106105f757610100808354040283529160200191610622565b820191906000526020600020905b81548152906001019060200180831161060557829003601f168201915b5050505050905090565b600061063782610db3565b6106725760405162461bcd60e51b815260040180806020018281038252602c815260200180611d72602c913960400191505060405180910390fd5b506000908152600460205260409020546001600160a01b031690565b600061069982610851565b9050806001600160a01b0316836001600160a01b031614156106ec5760405162461bcd60e51b8152600401808060200182810382526021815260200180611e426021913960400191505060405180910390fd5b806001600160a01b03166106fe610dc0565b6001600160a01b0316148061071f575061071f8161071a610dc0565b610d85565b61075a5760405162461bcd60e51b8152600401808060200182810382526038815260200180611cc56038913960400191505060405180910390fd5b6107648383610dc4565b505050565b6107738282610e32565b5050565b60006107836002610e95565b905090565b610799610793610dc0565b82610ea0565b6107d45760405162461bcd60e51b8152600401808060200182810382526031815260200180611e636031913960400191505060405180910390fd5b610764838383610f44565b6001600160a01b0382166000908152600160205260408120610801908361107e565b90505b92915050565b610773828261108a565b61076483838360405180602001604052806000815250610aa4565b610838816111a5565b50565b600080610849600284611260565b509392505050565b600061080482604051806060016040528060298152602001611d27602991396002919061127c565b60098054604080516020601f60026000196101006001881615020190951694909404938401819004810282018101909252828152606093909290918301828280156106225780601f106105f757610100808354040283529160200191610622565b60006001600160a01b0382166109215760405162461bcd60e51b815260040180806020018281038252602a815260200180611cfd602a913960400191505060405180910390fd5b6001600160a01b038216600090815260016020526040902061080490610e95565b60078054604080516020601f60026000196101006001881615020190951694909404938401819004810282018101909252828152606093909290918301828280156106225780601f106105f757610100808354040283529160200191610622565b6109ab610dc0565b6001600160a01b0316826001600160a01b03161415610a0d576040805162461bcd60e51b815260206004820152601960248201527822a9219b99189d1030b8383937bb32903a379031b0b63632b960391b604482015290519081900360640190fd5b8060056000610a1a610dc0565b6001600160a01b03908116825260208083019390935260409182016000908120918716808252919093529120805460ff191692151592909217909155610a5e610dc0565b6001600160a01b03167f17307eab39ab6107e8899845ad3d59bd9653f200f220920489ca2b5937696c318360405180821515815260200191505060405180910390a35050565b610ab5610aaf610dc0565b83610ea0565b610af05760405162461bcd60e51b8152600401808060200182810382526031815260200180611e636031913960400191505060405180910390fd5b610afc84848484611293565b50505050565b6060610b0d82610db3565b610b485760405162461bcd60e51b815260040180806020018281038252602f815260200180611df3602f913960400191505060405180910390fd5b60008281526008602090815260409182902080548351601f6002600019610100600186161502019093169290920491820184900484028101840190945280845260609392830182828015610bdd5780601f10610bb257610100808354040283529160200191610bdd565b820191906000526020600020905b815481529060010190602001808311610bc057829003601f168201915b505050505090506060610bee610879565b9050805160001415610c0257509050610591565b815115610cc35780826040516020018083805190602001908083835b60208310610c3d5780518252601f199092019160209182019101610c1e565b51815160209384036101000a600019018019909216911617905285519190930192850191508083835b60208310610c855780518252601f199092019160209182019101610c66565b6001836020036101000a0380198251168184511680821785525050505050509050019250505060405160208183030381529060405292505050610591565b80610ccd856112e5565b6040516020018083805190602001908083835b60208310610cff5780518252601f199092019160209182019101610ce0565b51815160209384036101000a600019018019909216911617905285519190930192850191508083835b60208310610d475780518252601f199092019160209182019101610d28565b6001836020036101000a0380198251168184511680821785525050505050509050019250505060405160208183030381529060405292505050919050565b6001600160a01b03918216600090815260056020908152604080832093909416825291909152205460ff1690565b60006108046002836113bf565b3390565b600081815260046020526040902080546001600160a01b0319166001600160a01b0384169081179091558190610df982610851565b6001600160a01b03167f8c5be1e5ebec7d5bd14f71427d1e84f3dd0314c0f7b2291e5b200ac8c7c3b92560405160405180910390a45050565b610e3b82610db3565b610e765760405162461bcd60e51b815260040180806020018281038252602c815260200180611d9e602c913960400191505060405180910390fd5b6000828152600860209081526040909120825161076492840190611b3f565b6000610804826113cb565b6000610eab82610db3565b610ee65760405162461bcd60e51b815260040180806020018281038252602c815260200180611c99602c913960400191505060405180910390fd5b6000610ef183610851565b9050806001600160a01b0316846001600160a01b03161480610f2c5750836001600160a01b0316610f218461062c565b6001600160a01b0316145b80610f3c5750610f3c8185610d85565b949350505050565b826001600160a01b0316610f5782610851565b6001600160a01b031614610f9c5760405162461bcd60e51b8152600401808060200182810382526029815260200180611dca6029913960400191505060405180910390fd5b6001600160a01b038216610fe15760405162461bcd60e51b8152600401808060200182810382526024815260200180611c756024913960400191505060405180910390fd5b610fec838383610764565b610ff7600082610dc4565b6001600160a01b038316600090815260016020526040902061101990826113cf565b506001600160a01b038216600090815260016020526040902061103c90826113db565b50611049600282846113e7565b5080826001600160a01b0316846001600160a01b0316600080516020611e2283398151915260405160405180910390a4505050565b600061080183836113fd565b6001600160a01b0382166110e5576040805162461bcd60e51b815260206004820181905260248201527f4552433732313a206d696e7420746f20746865207a65726f2061646472657373604482015290519081900360640190fd5b6110ee81610db3565b1561113f576040805162461bcd60e51b815260206004820152601c60248201527b115490cdcc8c4e881d1bdad95b88185b1c9958591e481b5a5b9d195960221b604482015290519081900360640190fd5b61114b60008383610764565b6001600160a01b038216600090815260016020526040902061116d90826113db565b5061117a600282846113e7565b5060405181906001600160a01b03841690600090600080516020611e22833981519152908290a45050565b60006111b082610851565b90506111be81600084610764565b6111c9600083610dc4565b600082815260086020526040902054600260001961010060018416150201909116041561120757600082815260086020526040812061120791611bcb565b6001600160a01b038116600090815260016020526040902061122990836113cf565b50611235600283611461565b5060405182906000906001600160a01b03841690600080516020611e22833981519152908390a45050565b600080808061126f868661146d565b9097909650945050505050565b60006112898484846114e8565b90505b9392505050565b61129e848484610f44565b6112aa848484846115b2565b610afc5760405162461bcd60e51b8152600401808060200182810382526032815260200180611c436032913960400191505060405180910390fd5b60608161130a57506040805180820190915260018152600360fc1b6020820152610591565b8160005b811561132257600101600a8204915061130e565b6060816001600160401b038111801561133a57600080fd5b506040519080825280601f01601f191660200182016040528015611365576020820181803683370190505b50859350905060001982015b83156113b657600a840660300160f81b8282806001900393508151811061139457fe5b60200101906001600160f81b031916908160001a905350600a84049350611371565b50949350505050565b6000610801838361171a565b5490565b60006108018383611732565b600061080183836117f8565b600061128984846001600160a01b038516611842565b8154600090821061143f5760405162461bcd60e51b8152600401808060200182810382526022815260200180611c216022913960400191505060405180910390fd5b82600001828154811061144e57fe5b9060005260206000200154905092915050565b600061080183836118d9565b8154600090819083106114b15760405162461bcd60e51b8152600401808060200182810382526022815260200180611d506022913960400191505060405180910390fd5b60008460000184815481106114c257fe5b906000526020600020906002020190508060000154816001015492509250509250929050565b600082815260018401602052604081205482816115835760405162461bcd60e51b81526004018080602001828103825283818151815260200191508051906020019080838360005b83811015611548578181015183820152602001611530565b50505050905090810190601f1680156115755780820380516001836020036101000a031916815260200191505b509250505060405180910390fd5b5084600001600182038154811061159657fe5b9060005260206000209060020201600101549150509392505050565b60006115c6846001600160a01b03166119ad565b6115d257506001610f3c565b60606116e0630a85bd0160e11b6115e7610dc0565b88878760405160240180856001600160a01b03168152602001846001600160a01b0316815260200183815260200180602001828103825283818151815260200191508051906020019080838360005b8381101561164e578181015183820152602001611636565b50505050905090810190601f16801561167b5780820380516001836020036101000a031916815260200191505b5095505050505050604051602081830303815290604052906001600160e01b0319166020820180516001600160e01b038381831617835250505050604051806060016040528060328152602001611c43603291396001600160a01b03881691906119b3565b905060008180602001905160208110156116f957600080fd5b50516001600160e01b031916630a85bd0160e11b1492505050949350505050565b60009081526001919091016020526040902054151590565b600081815260018301602052604081205480156117ee578354600019808301919081019060009087908390811061176557fe5b906000526020600020015490508087600001848154811061178257fe5b6000918252602080832090910192909255828152600189810190925260409020908401905586548790806117b257fe5b60019003818190600052602060002001600090559055866001016000878152602001908152602001600020600090556001945050505050610804565b6000915050610804565b6000611804838361171a565b61183a57508154600181810184556000848152602080822090930184905584548482528286019093526040902091909155610804565b506000610804565b6000828152600184016020526040812054806118a757505060408051808201825283815260208082018481528654600181810189556000898152848120955160029093029095019182559151908201558654868452818801909252929091205561128c565b828560000160018303815481106118ba57fe5b906000526020600020906002020160010181905550600091505061128c565b600081815260018301602052604081205480156117ee578354600019808301919081019060009087908390811061190c57fe5b906000526020600020906002020190508087600001848154811061192c57fe5b60009182526020808320845460029093020191825560019384015491840191909155835482528983019052604090209084019055865487908061196b57fe5b60008281526020808220600260001990940193840201828155600190810183905592909355888152898201909252604082209190915594506108049350505050565b3b151590565b60606112898484600085856119c7856119ad565b611a18576040805162461bcd60e51b815260206004820152601d60248201527f416464726573733a2063616c6c20746f206e6f6e2d636f6e7472616374000000604482015290519081900360640190fd5b60006060866001600160a01b031685876040518082805190602001908083835b60208310611a575780518252601f199092019160209182019101611a38565b6001836020036101000a03801982511681845116808217855250505050505090500191505060006040518083038185875af1925050503d8060008114611ab9576040519150601f19603f3d011682016040523d82523d6000602084013e611abe565b606091505b5091509150611ace828286611ad9565b979650505050505050565b60608315611ae857508161128c565b825115611af85782518084602001fd5b60405162461bcd60e51b8152602060048201818152845160248401528451859391928392604401919085019080838360008315611548578181015183820152602001611530565b828054600181600116156101000203166002900490600052602060002090601f016020900481019282611b755760008555611bbb565b82601f10611b8e57805160ff1916838001178555611bbb565b82800160010185558215611bbb579182015b82811115611bbb578251825591602001919060010190611ba0565b50611bc7929150611c0b565b5090565b50805460018160011615610100020316600290046000825580601f10611bf15750610838565b601f01602090049060005260206000209081019061083891905b5b80821115611bc75760008155600101611c0c56fe456e756d657261626c655365743a20696e646578206f7574206f6620626f756e64734552433732313a207472616e7366657220746f206e6f6e20455243373231526563656976657220696d706c656d656e7465724552433732313a207472616e7366657220746f20746865207a65726f20616464726573734552433732313a206f70657261746f7220717565727920666f72206e6f6e6578697374656e7420746f6b656e4552433732313a20617070726f76652063616c6c6572206973206e6f74206f776e6572206e6f7220617070726f76656420666f7220616c6c4552433732313a2062616c616e636520717565727920666f7220746865207a65726f20616464726573734552433732313a206f776e657220717565727920666f72206e6f6e6578697374656e7420746f6b656e456e756d657261626c654d61703a20696e646578206f7574206f6620626f756e64734552433732313a20617070726f76656420717565727920666f72206e6f6e6578697374656e7420746f6b656e4552433732314d657461646174613a2055524920736574206f66206e6f6e6578697374656e7420746f6b656e4552433732313a207472616e73666572206f6620746f6b656e2074686174206973206e6f74206f776e4552433732314d657461646174613a2055524920717565727920666f72206e6f6e6578697374656e7420746f6b656eddf252ad1be2c89b69c2b068fc378daa952ba7f163c4a11628f55a4df523b3ef4552433732313a20617070726f76616c20746f2063757272656e74206f776e65724552433732313a207472616e736665722063616c6c6572206973206e6f74206f776e6572206e6f7220617070726f766564a26469706673582212206bd7117b39138d99723151e5009cd84002e5da64dec855822c61dac27c45477b64736f6c63430007040033",
  "linkReferences": {},
  "deployedLinkReferences": {}
}